{
  "contractName": "Poster",
  "abi": [
    {
      "anonymous": false,
      "inputs": [
        {
          "indexed": true,
          "internalType": "address",
          "name": "user",
          "type": "address"
        },
        {
          "indexed": false,
          "internalType": "string",
          "name": "content",
          "type": "string"
        },
        {
          "indexed": true,
          "internalType": "string",
          "name": "tag",
          "type": "string"
        }
      ],
      "name": "NewPost",
      "type": "event"
    },
    {
      "constant": false,
      "inputs": [
        {
          "internalType": "string",
          "name": "content",
          "type": "string"
        },
        {
          "internalType": "string",
          "name": "tag",
          "type": "string"
        }
      ],
      "name": "post",
      "outputs": [],
      "payable": false,
      "stateMutability": "nonpayable",
      "type": "function"
    }
  ],
  "bytecode": "0x608060405234801561001057600080fd5b506102cf806100206000396000f3fe608060405234801561001057600080fd5b506004361061002b5760003560e01c80630ae1b13d14610030575b600080fd5b6101806004803603604081101561004657600080fd5b810190808035906020019064010000000081111561006357600080fd5b82018360208201111561007557600080fd5b8035906020019184600183028401116401000000008311171561009757600080fd5b91908080601f016020809104026020016040519081016040528093929190818152602001838380828437600081840152601f19601f820116905080830192505050505050509192919290803590602001906401000000008111156100fa57600080fd5b82018360208201111561010c57600080fd5b8035906020019184600183028401116401000000008311171561012e57600080fd5b91908080601f016020809104026020016040519081016040528093929190818152602001838380828437600081840152601f19601f820116905080830192505050505050509192919290505050610182565b005b806040518082805190602001908083835b602083106101b65780518252602082019150602081019050602083039250610193565b6001836020036101000a03801982511681845116808217855250505050505090500191505060405180910390203373ffffffffffffffffffffffffffffffffffffffff167f6c7f3182d7e4cb876251f9ae1489975fdbbf15d9f35d393f2ac9b1ff57cec69f846040518080602001828103825283818151815260200191508051906020019080838360005b8381101561025c578082015181840152602081019050610241565b50505050905090810190601f1680156102895780820380516001836020036101000a031916815260200191505b509250505060405180910390a3505056fea265627a7a723158203496822f069a3fdb77cebe070cc368b88de22bf0388b28c29825e968a89de14b64736f6c63430005100032",
  "source": "// SPDX-licence-Identifier: MIT\npragma solidity >=0.4.21 <0.9.0;\n\n\ncontract Poster {\n\tevent NewPost(address indexed user, string content, string indexed tag);\n\n\tfunction post(string memory content, string memory tag) public {\n\t\temit NewPost(msg.sender, content, tag);\n\t}\n}\n",
  "sourcePath": "/home/vagrant/ParentContract/poster-contract/contracts/polygon/Poster.sol",
  "compiler": {
    "name": "solc",
    "version": "0.5.16+commit.9c3226ce.Emscripten.clang"
  },
  "schemaVersion": "3.4.10",
  "updatedAt": "2022-10-19T21:50:54.784Z",
  "devdoc": {
    "methods": {}
  },
  "userdoc": {
    "methods": {}
  },
  "db": {
    "callBytecode": {
      "id": "0x9190e1d39148a243dae7962949821ce7073fb29b65b911fc93f231e652746141"
    },
    "createBytecode": {
      "id": "0xff5ff7307b871bd5423478e6c9e30dae951817ee2a50ff90794df63dce2b86d6"
    },
    "contract": {
      "id": "0x73c349f230deb687d3e395238da74837fe13e1269035c875c9b8d258f16c37fe"
    }
  }
}